{
  "contractName": "ICO",
  "abi": [
    {
      "inputs": [
        {
          "internalType": "address",
          "name": "_token",
          "type": "address"
        },
        {
          "internalType": "address",
          "name": "_admin",
          "type": "address"
        }
      ],
      "stateMutability": "nonpayable",
      "type": "constructor"
    },
    {
      "anonymous": false,
      "inputs": [
        {
          "indexed": true,
          "internalType": "address",
          "name": "Receiver_address",
          "type": "address"
        },
        {
          "indexed": true,
          "internalType": "uint256",
          "name": "amount",
          "type": "uint256"
        }
      ],
      "name": "Airdrop",
      "type": "event"
    },
    {
      "anonymous": false,
      "inputs": [
        {
          "indexed": true,
          "internalType": "address",
          "name": "buyer_address",
          "type": "address"
        },
        {
          "indexed": true,
          "internalType": "uint256",
          "name": "amount",
          "type": "uint256"
        }
      ],
      "name": "Buy",
      "type": "event"
    },
    {
      "inputs": [],
      "name": "admin",
      "outputs": [
        {
          "internalType": "address",
          "name": "",
          "type": "address"
        }
      ],
      "stateMutability": "view",
      "type": "function",
      "constant": true
    },
    {
      "inputs": [],
      "name": "airDropAmount",
      "outputs": [
        {
          "internalType": "uint256",
          "name": "",
          "type": "uint256"
        }
      ],
      "stateMutability": "view",
      "type": "function",
      "constant": true
    },
    {
      "inputs": [
        {
          "internalType": "address",
          "name": "",
          "type": "address"
        }
      ],
      "name": "airdrops",
      "outputs": [
        {
          "internalType": "uint256",
          "name": "",
          "type": "uint256"
        }
      ],
      "stateMutability": "view",
      "type": "function",
      "constant": true
    },
    {
      "inputs": [
        {
          "internalType": "address",
          "name": "",
          "type": "address"
        }
      ],
      "name": "holders",
      "outputs": [
        {
          "internalType": "uint256",
          "name": "",
          "type": "uint256"
        }
      ],
      "stateMutability": "view",
      "type": "function",
      "constant": true
    },
    {
      "inputs": [],
      "name": "holdersCount",
      "outputs": [
        {
          "internalType": "uint256",
          "name": "",
          "type": "uint256"
        }
      ],
      "stateMutability": "view",
      "type": "function",
      "constant": true
    },
    {
      "inputs": [],
      "name": "icoEndTime",
      "outputs": [
        {
          "internalType": "uint256",
          "name": "",
          "type": "uint256"
        }
      ],
      "stateMutability": "view",
      "type": "function",
      "constant": true
    },
    {
      "inputs": [
        {
          "internalType": "address",
          "name": "",
          "type": "address"
        }
      ],
      "name": "isInList",
      "outputs": [
        {
          "internalType": "bool",
          "name": "",
          "type": "bool"
        }
      ],
      "stateMutability": "view",
      "type": "function",
      "constant": true
    },
    {
      "inputs": [],
      "name": "maxAirdropAmount",
      "outputs": [
        {
          "internalType": "uint256",
          "name": "",
          "type": "uint256"
        }
      ],
      "stateMutability": "view",
      "type": "function",
      "constant": true
    },
    {
      "inputs": [],
      "name": "token",
      "outputs": [
        {
          "internalType": "contract IERC20",
          "name": "",
          "type": "address"
        }
      ],
      "stateMutability": "view",
      "type": "function",
      "constant": true
    },
    {
      "inputs": [],
      "name": "tokenPrice",
      "outputs": [
        {
          "internalType": "uint256",
          "name": "",
          "type": "uint256"
        }
      ],
      "stateMutability": "view",
      "type": "function",
      "constant": true
    },
    {
      "inputs": [],
      "name": "totalReleasedAirdrop",
      "outputs": [
        {
          "internalType": "uint256",
          "name": "",
          "type": "uint256"
        }
      ],
      "stateMutability": "view",
      "type": "function",
      "constant": true
    },
    {
      "inputs": [
        {
          "internalType": "uint256",
          "name": "duration",
          "type": "uint256"
        }
      ],
      "name": "activate",
      "outputs": [],
      "stateMutability": "nonpayable",
      "type": "function"
    },
    {
      "inputs": [],
      "name": "inactivate",
      "outputs": [],
      "stateMutability": "nonpayable",
      "type": "function"
    },
    {
      "inputs": [
        {
          "internalType": "uint256",
          "name": "_amount",
          "type": "uint256"
        }
      ],
      "name": "depositTokens",
      "outputs": [],
      "stateMutability": "nonpayable",
      "type": "function"
    },
    {
      "inputs": [
        {
          "internalType": "uint256",
          "name": "_amount",
          "type": "uint256"
        }
      ],
      "name": "withdrawTokens",
      "outputs": [],
      "stateMutability": "nonpayable",
      "type": "function"
    },
    {
      "inputs": [
        {
          "internalType": "address",
          "name": "_account",
          "type": "address"
        }
      ],
      "name": "balanceOfETH",
      "outputs": [
        {
          "internalType": "uint256",
          "name": "",
          "type": "uint256"
        }
      ],
      "stateMutability": "view",
      "type": "function",
      "constant": true
    },
    {
      "inputs": [
        {
          "internalType": "address",
          "name": "_account",
          "type": "address"
        }
      ],
      "name": "balanceOfToken",
      "outputs": [
        {
          "internalType": "uint256",
          "name": "",
          "type": "uint256"
        }
      ],
      "stateMutability": "view",
      "type": "function",
      "constant": true
    },
    {
      "inputs": [],
      "name": "getICOAddress",
      "outputs": [
        {
          "internalType": "address",
          "name": "",
          "type": "address"
        }
      ],
      "stateMutability": "view",
      "type": "function",
      "constant": true
    },
    {
      "inputs": [],
      "name": "getTokenAddress",
      "outputs": [
        {
          "internalType": "address",
          "name": "",
          "type": "address"
        }
      ],
      "stateMutability": "view",
      "type": "function",
      "constant": true
    },
    {
      "inputs": [
        {
          "internalType": "address",
          "name": "_newAdmin",
          "type": "address"
        }
      ],
      "name": "updateAdmin",
      "outputs": [],
      "stateMutability": "nonpayable",
      "type": "function"
    },
    {
      "inputs": [
        {
          "internalType": "uint256",
          "name": "_amount",
          "type": "uint256"
        }
      ],
      "name": "withdrawETH",
      "outputs": [],
      "stateMutability": "nonpayable",
      "type": "function"
    },
    {
      "inputs": [
        {
          "internalType": "address",
          "name": "_receiver",
          "type": "address"
        }
      ],
      "name": "airdrop",
      "outputs": [],
      "stateMutability": "nonpayable",
      "type": "function"
    },
    {
      "inputs": [
        {
          "internalType": "uint256",
          "name": "_amount",
          "type": "uint256"
        }
      ],
      "name": "purchase",
      "outputs": [],
      "stateMutability": "payable",
      "type": "function",
      "payable": true
    }
  ],
  "bytecode": "0x608060405266038d7ea4c6800060025568056bc75e2d6310000060035569d3c21bcecceda10000006005553480156200003757600080fd5b5060405162001d6038038062001d6083398181016040528101906200005d919062000150565b806000806101000a81548173ffffffffffffffffffffffffffffffffffffffff021916908373ffffffffffffffffffffffffffffffffffffffff16021790555081600160006101000a81548173ffffffffffffffffffffffffffffffffffffffff021916908373ffffffffffffffffffffffffffffffffffffffff160217905550505062000197565b600080fd5b600073ffffffffffffffffffffffffffffffffffffffff82169050919050565b60006200011882620000eb565b9050919050565b6200012a816200010b565b81146200013657600080fd5b50565b6000815190506200014a816200011f565b92915050565b600080604083850312156200016a5762000169620000e6565b5b60006200017a8582860162000139565b92505060206200018d8582860162000139565b9150509250929050565b611bb980620001a76000396000f3fe6080604052600436106101405760003560e01c80638c86f0a7116100b6578063e2f273bd1161006f578063e2f273bd1461044c578063efef39a114610475578063f14210a614610491578063f851a440146104ba578063fa33bcf3146104e5578063fc0c546a1461052257610140565b80638c86f0a71461033e578063b260c42a1461037b578063b99152d0146103a4578063d27289f2146103e1578063d82c6df41461040c578063dd49756e1461042357610140565b8063315a095d11610108578063315a095d1461022c578063561cd462146102555780636b4ed21b1461029257806375013a22146102bd5780637e1055b6146102e85780637ff9b5961461031357610140565b806308e9988b1461014557806310fe9ae81461017057806318a5bbdc1461019b57806321860a05146101d857806323efeb1214610201575b600080fd5b34801561015157600080fd5b5061015a61054d565b6040516101679190611362565b60405180910390f35b34801561017c57600080fd5b50610185610553565b60405161019291906113be565b60405180910390f35b3480156101a757600080fd5b506101c260048036038101906101bd919061140a565b61057d565b6040516101cf9190611362565b60405180910390f35b3480156101e457600080fd5b506101ff60048036038101906101fa919061140a565b610595565b005b34801561020d57600080fd5b50610216610982565b6040516102239190611362565b60405180910390f35b34801561023857600080fd5b50610253600480360381019061024e9190611463565b610988565b005b34801561026157600080fd5b5061027c6004803603810190610277919061140a565b610aa6565b6040516102899190611362565b60405180910390f35b34801561029e57600080fd5b506102a7610ac7565b6040516102b49190611362565b60405180910390f35b3480156102c957600080fd5b506102d2610acd565b6040516102df91906113be565b60405180910390f35b3480156102f457600080fd5b506102fd610ad5565b60405161030a9190611362565b60405180910390f35b34801561031f57600080fd5b50610328610adb565b6040516103359190611362565b60405180910390f35b34801561034a57600080fd5b506103656004803603810190610360919061140a565b610ae1565b6040516103729190611362565b60405180910390f35b34801561038757600080fd5b506103a2600480360381019061039d9190611463565b610af9565b005b3480156103b057600080fd5b506103cb60048036038101906103c6919061140a565b610bdf565b6040516103d89190611362565b60405180910390f35b3480156103ed57600080fd5b506103f6610c93565b6040516104039190611362565b60405180910390f35b34801561041857600080fd5b50610421610c99565b005b34801561042f57600080fd5b5061044a60048036038101906104459190611463565b610d83565b005b34801561045857600080fd5b50610473600480360381019061046e919061140a565b610ee6565b005b61048f600480360381019061048a9190611463565b610fb7565b005b34801561049d57600080fd5b506104b860048036038101906104b39190611463565b61122a565b005b3480156104c657600080fd5b506104cf6112df565b6040516104dc91906113be565b60405180910390f35b3480156104f157600080fd5b5061050c6004803603810190610507919061140a565b611303565b60405161051991906114ab565b60405180910390f35b34801561052e57600080fd5b50610537611323565b6040516105449190611525565b60405180910390f35b60035481565b6000600160009054906101000a900473ffffffffffffffffffffffffffffffffffffffff16905090565b60096020528060005260406000206000915090505481565b60006006541180156105a8575060065442105b6105e7576040517f08c379a00000000000000000000000000000000000000000000000000000000081526004016105de9061159d565b60405180910390fd5b6000600860008373ffffffffffffffffffffffffffffffffffffffff1673ffffffffffffffffffffffffffffffffffffffff1681526020019081526020016000205414610669576040517f08c379a000000000000000000000000000000000000000000000000000000000815260040161066090611609565b60405180910390fd5b60055460035460045461067c9190611658565b11156106bd576040517f08c379a00000000000000000000000000000000000000000000000000000000081526004016106b490611720565b60405180910390fd5b6003546106c930610bdf565b101561070a576040517f08c379a0000000000000000000000000000000000000000000000000000000008152600401610701906117b2565b60405180910390fd5b600160009054906101000a900473ffffffffffffffffffffffffffffffffffffffff1673ffffffffffffffffffffffffffffffffffffffff1663a9059cbb826003546040518363ffffffff1660e01b81526004016107699291906117d2565b602060405180830381600087803b15801561078357600080fd5b505af1158015610797573d6000803e3d6000fd5b505050506040513d601f19601f820116820180604052508101906107bb9190611827565b50600354600860008373ffffffffffffffffffffffffffffffffffffffff1673ffffffffffffffffffffffffffffffffffffffff16815260200190815260200160002081905550600354600460008282546108169190611658565b925050819055506003548173ffffffffffffffffffffffffffffffffffffffff167f8c32c568416fcf97be35ce5b27844cfddcd63a67a1a602c3595ba5dac38f303a60405160405180910390a3600a60008273ffffffffffffffffffffffffffffffffffffffff1673ffffffffffffffffffffffffffffffffffffffff16815260200190815260200160002060009054906101000a900460ff16610927576001600a60008373ffffffffffffffffffffffffffffffffffffffff1673ffffffffffffffffffffffffffffffffffffffff16815260200190815260200160002060006101000a81548160ff02191690831515021790555060016007600082825461091f9190611658565b925050819055505b600354600960008373ffffffffffffffffffffffffffffffffffffffff1673ffffffffffffffffffffffffffffffffffffffff16815260200190815260200160002060008282546109789190611658565b9250508190555050565b60055481565b61099130610bdf565b8111156109d3576040517f08c379a00000000000000000000000000000000000000000000000000000000081526004016109ca906118c6565b60405180910390fd5b600160009054906101000a900473ffffffffffffffffffffffffffffffffffffffff1673ffffffffffffffffffffffffffffffffffffffff1663a9059cbb60008054906101000a900473ffffffffffffffffffffffffffffffffffffffff16836040518363ffffffff1660e01b8152600401610a509291906117d2565b602060405180830381600087803b158015610a6a57600080fd5b505af1158015610a7e573d6000803e3d6000fd5b505050506040513d601f19601f82011682018060405250810190610aa29190611827565b5050565b60008173ffffffffffffffffffffffffffffffffffffffff16319050919050565b60075481565b600030905090565b60065481565b60025481565b60086020528060005260406000206000915090505481565b60008054906101000a900473ffffffffffffffffffffffffffffffffffffffff1673ffffffffffffffffffffffffffffffffffffffff163373ffffffffffffffffffffffffffffffffffffffff1614610b87576040517f08c379a0000000000000000000000000000000000000000000000000000000008152600401610b7e90611958565b60405180910390fd5b60008111610bca576040517f08c379a0000000000000000000000000000000000000000000000000000000008152600401610bc1906119c4565b60405180910390fd5b8042610bd69190611658565b60068190555050565b6000600160009054906101000a900473ffffffffffffffffffffffffffffffffffffffff1673ffffffffffffffffffffffffffffffffffffffff166370a08231836040518263ffffffff1660e01b8152600401610c3c91906113be565b60206040518083038186803b158015610c5457600080fd5b505afa158015610c68573d6000803e3d6000fd5b505050506040513d601f19601f82011682018060405250810190610c8c91906119f9565b9050919050565b60045481565b60008054906101000a900473ffffffffffffffffffffffffffffffffffffffff1673ffffffffffffffffffffffffffffffffffffffff163373ffffffffffffffffffffffffffffffffffffffff1614610d27576040517f08c379a0000000000000000000000000000000000000000000000000000000008152600401610d1e90611958565b60405180910390fd5b6000600654118015610d3a575060065442105b610d79576040517f08c379a0000000000000000000000000000000000000000000000000000000008152600401610d709061159d565b60405180910390fd5b6000600681905550565b60008054906101000a900473ffffffffffffffffffffffffffffffffffffffff1673ffffffffffffffffffffffffffffffffffffffff163373ffffffffffffffffffffffffffffffffffffffff1614610e11576040517f08c379a0000000000000000000000000000000000000000000000000000000008152600401610e0890611958565b60405180910390fd5b600160009054906101000a900473ffffffffffffffffffffffffffffffffffffffff1673ffffffffffffffffffffffffffffffffffffffff166323b872dd60008054906101000a900473ffffffffffffffffffffffffffffffffffffffff1630846040518463ffffffff1660e01b8152600401610e9093929190611a26565b602060405180830381600087803b158015610eaa57600080fd5b505af1158015610ebe573d6000803e3d6000fd5b505050506040513d601f19601f82011682018060405250810190610ee29190611827565b5050565b60008054906101000a900473ffffffffffffffffffffffffffffffffffffffff1673ffffffffffffffffffffffffffffffffffffffff163373ffffffffffffffffffffffffffffffffffffffff1614610f74576040517f08c379a0000000000000000000000000000000000000000000000000000000008152600401610f6b90611958565b60405180910390fd5b806000806101000a81548173ffffffffffffffffffffffffffffffffffffffff021916908373ffffffffffffffffffffffffffffffffffffffff16021790555050565b600254670de0b6b3a764000082610fce9190611a8c565b610fd89190611abd565b3414611019576040517f08c379a000000000000000000000000000000000000000000000000000000000815260040161101090611b63565b60405180910390fd5b600160009054906101000a900473ffffffffffffffffffffffffffffffffffffffff1673ffffffffffffffffffffffffffffffffffffffff1663a9059cbb33836040518363ffffffff1660e01b81526004016110769291906117d2565b602060405180830381600087803b15801561109057600080fd5b505af11580156110a4573d6000803e3d6000fd5b505050506040513d601f19601f820116820180604052508101906110c89190611827565b50600a60003373ffffffffffffffffffffffffffffffffffffffff1673ffffffffffffffffffffffffffffffffffffffff16815260200190815260200160002060009054906101000a900460ff1661118d576001600a60003373ffffffffffffffffffffffffffffffffffffffff1673ffffffffffffffffffffffffffffffffffffffff16815260200190815260200160002060006101000a81548160ff0219169083151502179055506001600760008282546111859190611658565b925050819055505b80600960003373ffffffffffffffffffffffffffffffffffffffff1673ffffffffffffffffffffffffffffffffffffffff16815260200190815260200160002060008282546111dc9190611658565b92505081905550803373ffffffffffffffffffffffffffffffffffffffff167fe3d4187f6ca4248660cc0ac8b8056515bac4a8132be2eca31d6d0cc170722a7e60405160405180910390a350565b61123330610aa6565b811115611275576040517f08c379a000000000000000000000000000000000000000000000000000000000815260040161126c906118c6565b60405180910390fd5b60008054906101000a900473ffffffffffffffffffffffffffffffffffffffff1673ffffffffffffffffffffffffffffffffffffffff166108fc829081150290604051600060405180830381858888f193505050501580156112db573d6000803e3d6000fd5b5050565b60008054906101000a900473ffffffffffffffffffffffffffffffffffffffff1681565b600a6020528060005260406000206000915054906101000a900460ff1681565b600160009054906101000a900473ffffffffffffffffffffffffffffffffffffffff1681565b6000819050919050565b61135c81611349565b82525050565b60006020820190506113776000830184611353565b92915050565b600073ffffffffffffffffffffffffffffffffffffffff82169050919050565b60006113a88261137d565b9050919050565b6113b88161139d565b82525050565b60006020820190506113d360008301846113af565b92915050565b600080fd5b6113e78161139d565b81146113f257600080fd5b50565b600081359050611404816113de565b92915050565b6000602082840312156114205761141f6113d9565b5b600061142e848285016113f5565b91505092915050565b61144081611349565b811461144b57600080fd5b50565b60008135905061145d81611437565b92915050565b600060208284031215611479576114786113d9565b5b60006114878482850161144e565b91505092915050565b60008115159050919050565b6114a581611490565b82525050565b60006020820190506114c0600083018461149c565b92915050565b6000819050919050565b60006114eb6114e66114e18461137d565b6114c6565b61137d565b9050919050565b60006114fd826114d0565b9050919050565b600061150f826114f2565b9050919050565b61151f81611504565b82525050565b600060208201905061153a6000830184611516565b92915050565b600082825260208201905092915050565b7f49434f2068617665206265656e20656e64656400000000000000000000000000600082015250565b6000611587601383611540565b915061159282611551565b602082019050919050565b600060208201905081810360008301526115b68161157a565b9050919050565b7f61697264726f703a20616c726561647920646f6e652100000000000000000000600082015250565b60006115f3601683611540565b91506115fe826115bd565b602082019050919050565b60006020820190508181036000830152611622816115e6565b9050919050565b7f4e487b7100000000000000000000000000000000000000000000000000000000600052601160045260246000fd5b600061166382611349565b915061166e83611349565b9250827fffffffffffffffffffffffffffffffffffffffffffffffffffffffffffffffff038211156116a3576116a2611629565b5b828201905092915050565b7f61697264726f703a20616c6c2061697264726f7020746f6b656e73207765726560008201527f2072656c65617365642100000000000000000000000000000000000000000000602082015250565b600061170a602a83611540565b9150611715826116ae565b604082019050919050565b60006020820190508181036000830152611739816116fd565b9050919050565b7f61697264726f703a204e6f20656e6f75676820746f6b656e7320666f7220616960008201527f7264726f70210000000000000000000000000000000000000000000000000000602082015250565b600061179c602683611540565b91506117a782611740565b604082019050919050565b600060208201905081810360008301526117cb8161178f565b9050919050565b60006040820190506117e760008301856113af565b6117f46020830184611353565b9392505050565b61180481611490565b811461180f57600080fd5b50565b600081519050611821816117fb565b92915050565b60006020828403121561183d5761183c6113d9565b5b600061184b84828501611812565b91505092915050565b7f74686520616d6f756e7420697320686967686572207468616e2074686520626160008201527f6c616e6365000000000000000000000000000000000000000000000000000000602082015250565b60006118b0602583611540565b91506118bb82611854565b604082019050919050565b600060208201905081810360008301526118df816118a3565b9050919050565b7f6f6e6c792061646d696e2063616e2063616c6c20746869732066756e6374696f60008201527f6e00000000000000000000000000000000000000000000000000000000000000602082015250565b6000611942602183611540565b915061194d826118e6565b604082019050919050565b6000602082019050818103600083015261197181611935565b9050919050565b7f6475726174696f6e206d7573742062652067726561746572207468616e203000600082015250565b60006119ae601f83611540565b91506119b982611978565b602082019050919050565b600060208201905081810360008301526119dd816119a1565b9050919050565b6000815190506119f381611437565b92915050565b600060208284031215611a0f57611a0e6113d9565b5b6000611a1d848285016119e4565b91505092915050565b6000606082019050611a3b60008301866113af565b611a4860208301856113af565b611a556040830184611353565b949350505050565b7f4e487b7100000000000000000000000000000000000000000000000000000000600052601260045260246000fd5b6000611a9782611349565b9150611aa283611349565b925082611ab257611ab1611a5d565b5b828204905092915050565b6000611ac882611349565b9150611ad383611349565b9250817fffffffffffffffffffffffffffffffffffffffffffffffffffffffffffffffff0483118215151615611b0c57611b0b611629565b5b828202905092915050565b7f70757263686173653a206e6f7420636f72726563742076616c75652100000000600082015250565b6000611b4d601c83611540565b9150611b5882611b17565b602082019050919050565b60006020820190508181036000830152611b7c81611b40565b905091905056fea26469706673582212200ce191614290f57b154fa10f34c57ac93f5e18c92f1a6c290fbe3337cdb6f0f664736f6c63430008090033",
  "immutableReferences": {},
  "source": "// SPDX-License-Identifier: MIT\r\npragma solidity >=0.4.16 <0.9.0;\r\n\r\nimport \"@openzeppelin/contracts/token/ERC20/IERC20.sol\";\r\n\r\ncontract ICO {\r\n    address public admin;\r\n    IERC20 public token;\r\n    uint public tokenPrice = 10 ** 15 wei;\r\n    uint public airDropAmount = 100 * 1e18;\r\n    uint public totalReleasedAirdrop;\r\n    uint public maxAirdropAmount = 1_000_000 * 1e18;\r\n    uint public icoEndTime;\r\n    uint public holdersCount;\r\n\r\n    mapping(address => uint) public airdrops;\r\n    mapping(address => uint) public holders;\r\n    mapping(address => bool) public isInList;\r\n\r\n    event Buy(address indexed buyer_address, uint indexed amount);\r\n    event Airdrop(address indexed Receiver_address, uint indexed amount);\r\n\r\n    constructor(address _token, address _admin) {\r\n        admin = _admin;\r\n        token = IERC20(_token);\r\n    }\r\n\r\n    modifier onlyAdmin() {\r\n        require(msg.sender == admin, \"only admin can call this function\");\r\n        _;\r\n    }\r\n\r\n    modifier isActive() {\r\n        require(\r\n            icoEndTime > 0 && block.timestamp < icoEndTime,\r\n            \"ICO have been ended\"\r\n        );\r\n        _;\r\n    }\r\n\r\n    function activate(uint duration) external onlyAdmin {\r\n        require(duration > 0, \"duration must be greater than 0\");\r\n        icoEndTime = block.timestamp + duration;\r\n    }\r\n\r\n    function inactivate() external onlyAdmin isActive {\r\n        icoEndTime = 0;\r\n    }\r\n\r\n    function depositTokens(uint _amount) public onlyAdmin {\r\n        /*\r\n            call from UI\r\n            msg.sender = admin\r\n            token.approve(ico,amount);\r\n        */\r\n        token.transferFrom(admin, address(this), _amount);\r\n    }\r\n\r\n    function withdrawTokens(uint _amount) public {\r\n        require(\r\n            _amount <= balanceOfToken(address(this)),\r\n            \"the amount is higher than the balance\"\r\n        );\r\n        token.transfer(admin, _amount);\r\n    }\r\n\r\n    function balanceOfETH(address _account) public view returns (uint) {\r\n        return _account.balance;\r\n    }\r\n\r\n    function balanceOfToken(address _account) public view returns (uint) {\r\n        return token.balanceOf(_account);\r\n    }\r\n\r\n    function getICOAddress() public view returns (address) {\r\n        return address(this);\r\n    }\r\n\r\n    function getTokenAddress() public view returns (address) {\r\n        return address(token);\r\n    }\r\n\r\n    function updateAdmin(address _newAdmin) external onlyAdmin {\r\n        admin = _newAdmin;\r\n    }\r\n\r\n    function withdrawETH(uint _amount) public {\r\n        require(\r\n            _amount <= balanceOfETH(address(this)),\r\n            \"the amount is higher than the balance\"\r\n        );\r\n        payable(admin).transfer(_amount);\r\n    }\r\n\r\n    function airdrop(address _receiver) external isActive {\r\n        require(airdrops[_receiver] == 0, \"airdrop: already done!\");\r\n        require(\r\n            totalReleasedAirdrop + airDropAmount <= maxAirdropAmount,\r\n            \"airdrop: all airdrop tokens were released!\"\r\n        );\r\n        require(\r\n            balanceOfToken(address(this)) >= airDropAmount,\r\n            \"airdrop: No enough tokens for airdrop!\"\r\n        );\r\n\r\n        token.transfer(_receiver, airDropAmount);\r\n        airdrops[_receiver] = airDropAmount;\r\n        totalReleasedAirdrop += airDropAmount;\r\n        emit Airdrop(_receiver, airDropAmount);\r\n        if (!isInList[_receiver]) {\r\n            isInList[_receiver] = true;\r\n            holdersCount += 1;\r\n        }\r\n        holders[_receiver] += airDropAmount;\r\n    }\r\n\r\n    function purchase(uint _amount) external payable {\r\n        require(\r\n            msg.value == ((_amount / 1e18) * tokenPrice),\r\n            \"purchase: not correct value!\"\r\n        );\r\n\r\n        token.transfer(msg.sender, _amount);\r\n\r\n        if (!isInList[msg.sender]) {\r\n            isInList[msg.sender] = true;\r\n            holdersCount += 1;\r\n        }\r\n        holders[msg.sender] += _amount;\r\n        emit Buy(msg.sender, _amount);\r\n    }\r\n}\r\n",
  "sourcePath": "C:\\Users\\mohammad.azamiandara\\Desktop\\Workspace\\Solidity\\ICO\\contracts\\ICO.sol",
  "compiler": {
    "name": "solc",
    "version": "0.8.9+commit.e5eed63a.Emscripten.clang"
  },
  "schemaVersion": "3.4.3",
  "updatedAt": "2024-04-08T07:49:57.044Z",
  "networkType": "ethereum",
  "devdoc": {
    "kind": "dev",
    "methods": {},
    "version": 1
  },
  "userdoc": {
    "kind": "user",
    "methods": {},
    "version": 1
  }
}